:04000000ABEF7FF0F3
:10FF56000001AEEF7FF0C3EC7FF08C80150E036ED0
:10FF6600C60EE82EFED7032EFCD700D08C90150EB9
:10FF7600036EC60EE82EFED7032EFCD700D0EDD7B3
:10FF8600D388D38AD38C9B8CF29E000E0F01386FD8
:10FF9600000E396F000E3A6F000E3B6F000E3C6F7D
:10FFA600000E926E000E936E000E946E000E956E0D
:10FFB600000E966E000E806E000E816E000E826E32
:10FFC600000E836E000E846E000E896E000E8A6E21
:10FFD600000E8B6E000E8C6E000E8D6E94869488CD
:10FFE600090E026E1E0E016EE40EE82EFED7012EDD
:0AFFF600FCD7022EFAD700D012004B
:020000040020DA
:08000000FFFFFFFFFFFFFFFF00
:020000040030CA
:0E000000FF28193CFFBD80FF0FC00FE00F402E
:00000001FF
